:020000040800F2
:1000000058070020DD0100083B190008F116000820
:1000100039190008CB030008752200080000000011
:10002000000000000000000000000000151A000899
:10003000CD030008000000003D190008171A000851
:10004000F7010008F7010008F7010008F7010008B0
:10005000F7010008F7010008F7010008F7010008A0
:10006000F7010008F7010008F7010008F701000890
:10007000F7010008F7010008F7010008F701000880
:10008000F7010008F7010008F70100080000000070
:1000900000000000F7010008F7010008F701000860
:1000A000F7010008F7010008F7010008F701000850
:1000B000F7010008F7010008F7010008F701000840
:1000C0000000000000000000F70100080000000030
:1000D000F7010008F701000800000000F701000820
:1000E000F7010008F701000800000000F701000810
:1000F000F7010008F7010008F7010008F701000800
:10010000F7010008000000000000000000000000EF
:10011000F7010008F7010008F701000800000000DF
:1001200000000000000000000000000000000000CF
:100130000000000000000000F701000800F002F8D5
:1001400000F03CF80AA090E8000C82448344AAF135
:100150000107DA4501D100F031F8AFF2090EBAE833
:100160000F0013F0010F18BFFB1A43F001031847EB
:100170006022000080220000103A24BF78C878C1B5
:10018000FAD8520724BF30C830C144BF04680C609D
:10019000704700000023002400250026103A28BFE5
:1001A00078C1FBD8520728BF30C148BF0B607047E9
:1001B0001FB502F093F81FBD10B510BD00F0CFF8C9
:1001C0001146FFF7F5FF02F067F800F0EDF803B411
:1001D000FFF7F2FF03BC00F0F1F800000948804788
:1001E00009480047FEE7FEE7FEE7FEE7FEE7FEE719
:1001F000FEE7FEE7FEE7FEE704480549054A064B31
:1002000070470000B51A00083D01000858010020A1
:1002100058070020580300205803002053EA020C1E
:1002200000F069802DE9F04B4FF00006002B1FBF56
:10023000B3FA83F503FA05F424FA05F65E4012BF1B
:100240001643B2FA82F502FA05F4C5F120051EBF85
:1002500022FA05FC44EA0C04203556EA044C4FEA25
:10026000144418BF641C4FF000084FF0000990427E
:1002700071EB030C39D3002919BFB1FA81F701FAE8
:1002800007F6B0FA80F700FA07F6C7F120071EBF9D
:1002900020FA07FC46EA0C062037B6FBF4FCA7EB75
:1002A0000507103F07F01F0BCBF120060CFA0BFBE4
:1002B0002CFA06F644BFB3460026202FA4BF5E46A4
:1002C0004FF0000B5BEA060C08BF4FF0010B19EB77
:1002D0000B09ABFB027C48EB0608C01B06FB02CCFB
:1002E0000BFB03CC71EB0C01C1E70B460246414608
:1002F0004846BDE8F08B13B54FF000004FF0000109
:10030000AFF30080BDE81C4070474FF0000200B51D
:10031000134694469646203922BFA0E80C50A0E828
:100320000C50B1F12001BFF4F7AF090728BFA0E8D6
:100330000C5048BF0CC05DF804EB890028BF40F8A2
:10034000042B08BF704748BF20F8022B11F0804FE4
:1003500018BF00F8012B704770477047704775460B
:1003600000F028F8AE4605006946534620F0070025
:10037000854618B020B5FFF73FFFBDE820404FF09D
:1003800000064FF000074FF000084FF0000B21F07F
:100390000701AC46ACE8C009ACE8C009ACE8C0094C
:1003A000ACE8C0098D4670470446AFF30080204694
:1003B000FFF70DFF00487047F800002001491820A2
:1003C000ABBEFEE7260002007047FEE7704772B63C
:1003D000FEE7000070B5044600F012F90546601C07
:1003E00002D004480078044400F00AF9401BA042FF
:1003F000FAD370BD080000202DE9F04FDFF8E0B11E
:10040000DFF8DC910022012403260BF1800B85B07C
:100410000F2709F1040A0BF1040ED8E004FA02FCDC
:1004200018EA0C037DD00D7905F00305012D01D0EC
:10043000022D20D185680095550006FA05F804952F
:10044000009D25EA08050095D1F80C80049D08FA66
:1004500005F8009D48EA0508C0F80880456825EAC7
:100460000C0591F804C0CCF3001C0CFA02FC4CEA19
:10047000050CC0F804C00D79ED43AD070ED0C5687A
:100480004FEA420806FA08FC25EA0C05D1F808C034
:100490000CFA08FC4CEA050CC0F80CC00D7905F00C
:1004A0000305022D15D1D50800EB850502952D6AAF
:1004B0004FEA427C4FEADC6C07FA0CF825EA0805A3
:1004C000D1F8108008FA0CF848EA0508029DC5F832
:1004D000208005684FEA420CCDF808C006FA0CFCF3
:1004E00025EA0C0591F804C00CF00308DDF808C0FB
:1004F00008FA0CF848EA0508C0F800804D6815F4C1
:10050000403F63D0374D22F0030C65440295AD683F
:100510004FEA827C4FEA1C7807FA08FC25EA0C05B2
:1005200000E053E0B0F1904F06D0DFF8BCC060456A
:1005300005D14FF0010C12E04FF0000C0FE0DFF896
:10054000ACC0604502D14FF0020C08E0DFF8A0C05B
:10055000604502D14FF0040C01E04FF0070C0CFA9B
:1005600008FC4CEA050C029DC5F808C0D9F80050FB
:10057000CC46D1F804809D435FEAC82800D51D43CE
:10058000CCF80050DAF80050D446D1F804809D43EE
:100590005FEA882800D51D43CCF80050DBF80050F6
:1005A000DC46D1F804809D435FEAC83800D51D437E
:1005B000CCF80050DEF80050F446D1F804809D439A
:1005C0005FEA883800D51D43CCF80050521C0B68F8
:1005D0009846D3407FF422AF05B0BDE8F08F00000D
:1005E00000080058000001400004004800080048CE
:1005F000001000480AB181617047816270470000B5
:1006000001488068704700000800002001484068E9
:1006100070470000080000200248816802781144F9
:100620008160704708000020094810B50168002467
:1006300041F480710160032000F04EF8002000F0CA
:1006400009F808B1012401E000F024F8204610BDAB
:100650000040005870B50E4E054600243078A0B119
:1006600000F026FA31784FF47A72B2FBF1F1B0FB68
:10067000F1F000F023FD40B9102D06D200222946EA
:10068000501E00F009F8756000E00124204670BD9E
:100690000800002070470000F0B40E4B1B680C46A9
:1006A000C3F30223C3F10705042D00D90425191D46
:1006B000072901D2002300E0DB1E012606FA05F11E
:1006C000491E214099409E40761E16403143F0BCA1
:1006D00001F0D1BD0CED00E0064900F0070208680A
:1006E0004FF6FF03184040EA0220034A1043086017
:1006F000704700000CED00E00000FA0502480168B8
:1007000041F4807101607047000400584FF0B04020
:10071000016841F00401016070472DE9F041044691
:1007200000270088B84600054FF0B0453DD5D5F804
:10073000900000F44076206AB04236D0FFF7DEFF2A
:10074000F6B1D5F89000D5F8901041F48031C5F895
:100750009010D5F8901021F48031C5F89010216ADE
:1007600020F440700843C5F89000D5F8900010F0D0
:10077000010F19D0FFF744FF064641F288380FE019
:10078000206AD5F8901021F440710143C5F890100B
:100790000AE0FFF735FF811B414501D9032703E03C
:1007A00000F0C0FF0128F4D1B8462078C00707D078
:1007B0006068D5F8881021F003010143C5F888105E
:1007C0002078800707D5A068D5F8881021F440610B
:1007D0000143C5F888102078C00602D5206900F0D2
:1007E000D5FF2078800602D5606900F0CFFF207821
:1007F00040070CD5E068D5F888104FF47F2202EA54
:100800001013994302EA00100143C5F888102088AC
:1008100080051FD5A069B0F1804F14D0B0F1004F12
:1008200011D080B120F08056002000F0BAFFD5F83A
:10083000880020F040603043C5F88800A069B0F11E
:10084000C05F03D006E000F0ACFFF7E7E86840F0D7
:100850008070E860208840050FD5E069D5F88810E1
:1008600021F040510143C5F88810E069B0F1005F04
:1008700003D1E86840F48030E8602088C00407D5E0
:10088000606AD5F8941021F440410143C5F89410F2
:10089000208880040BD5E06A696A21F030010143A9
:1008A0006962A06A696A21F00301014369624046F6
:1008B000BDE8F0812DE9F0410F46050077D07A4E72
:1008C000306800F00700B84212D2306820F007000C
:1008D00038433060FFF794FE044604E0FFF790FED3
:1008E000001B02287DD8306800F00700B842F5D11F
:1008F00028784FF0B044800715D5A868A16821F08A
:10090000F0010143A160FFF77BFE804606E000BFD7
:10091000FFF776FEA0EB0800022862D8A068C0F3BB
:1009200000400028F4D02878800617D56869D4F8EC
:10093000081121F0F0010143C4F80811FFF760FE2F
:10094000804605E0FFF75CFEA0EB0800022848D8CF
:10095000D4F80801C0F340400028F3D028784006BE
:1009600018D5A869D4F8081121F00F0141EA101038
:10097000C4F80801FFF744FE804605E0FFF740FE9B
:10098000A0EB080002287ED8D4F80801C0F300408C
:100990000028F3D02878400715D5E868A16821F42D
:1009A000E0610143A160FFF72BFE804606E048E0CE
:1009B000FFF726FEA0EB0800022864D8A068C0F369
:1009C00040400028F4D02878000716D52869A1688F
:1009D00021F4605141EAC001A160FFF711FE804699
:1009E00006E050E0FFF70CFEA0EB080002284AD812
:1009F000A068C0F380400028F4D02878C0072ED02B
:100A00006868022806D0032808D0B8B12068C0F36F
:100A1000802006E02068C0F3404002E02068C0F378
:100A2000406070B16868A16821F003010143A160D2
:100A3000FFF7E6FD044641F288380AE000F089FE3F
:100A4000EFE70120BDE8F081FFF7DAFD011B41452A
:100A500019D800F058FE6968B0EB810FF4D1306806
:100A600000F00700B84215D9306820F0070038437D
:100A70003060FFF7C5FD044607E000BFFFF7C0FD8B
:100A8000001B022801D90320DCE7306800F00700D2
:100A9000B842F3D100F00CF804490860FFF7B6FD46
:100AA000BDE8F041FFF7D6BD00400058140000201B
:100AB00010B500F033F84FF0B0418968044A01F0F6
:100AC000F00102EB91010968B0FBF1F010BD0000EC
:100AD0003023000810B5FFF7EBFF4FF0B0418968F5
:100AE000044A01F4E06102EB9111097801F01F0161
:100AF000C84010BDB023000810B5FFF7D9FF4FF074
:100B0000B0418968044A01F4605102EB512109782F
:100B100001F01F01C84010BDB02300082DE9F041CD
:100B200000F0F1FD204F38B3204C04282CD0660093
:100B30004FF0B045082829D000F022FE022808D046
:100B400003282AD000F0FCFD00F0F00007EB900035
:100B50000468E868E968C0F30620604301F07002A9
:100B6000012101EB1212B0FBF2F2E86801EB5070C8
:100B7000B2FBF0F0BDE8F08100F0E2FD00F0F00023
:100B800007EB90000068F5E72046F3E72868C0F31C
:100B900000500028F8D13046ECE72868C0F3005038
:100BA0000028D6D13446D4E7702300080024F4008E
:100BB0002DE9F04104007DD020784FF0B04580064B
:100BC0005FD500F0A0FD064600F0DAFD76B10C2EF0
:100BD00001D101280AD0E0690028286840D040F0FF
:100BE00001002860FFF70CFD06462EE0E0690028B2
:100BF000E1D000F0A5FD0146606A81420AD200F012
:100C0000B5FE002856D1606A00F0B2FD206A00F0FF
:100C1000A6FD09E000F0ACFD206A00F0A0FD606ACE
:100C200000F0A4FE0028EDD1FFF742FFFE49086066
:100C3000FE480068FFF70EFD0028E3D121E000BF69
:100C4000FFF7DEFC801B022873D800F082FD00282D
:100C5000F6D0606A00F08CFD206A00F080FD10E0A4
:100C600020F001002860FFF7CBFC064605E000BF3E
:100C7000FFF7C6FC801B0228E6D800F06AFD0028BA
:100C8000F6D12078C0073BD000F03DFD064600F0CD
:100C900077FD082E13D00C2E01D103280FD06068E9
:100CA000B0F5803F28680ED020F48030286060685E
:100CB000B8B100E0E0E1FFF7A3FC06460BE0606896
:100CC000002895D01CE040F48030EFE7FFF798FC57
:100CD000801B6428B8D82868C0F340400028F5D0AD
:100CE0000EE0FFF78DFC064605E000BFFFF788FC2D
:100CF000801B6428A8D82868C0F340400028F5D19C
:100D0000207880073AD500F0FEFC064600F038FD5A
:100D1000042E0FD00C2E01D102280BD0E068002841
:100D200028681AD040F480702860FFF769FC0646F6
:100D30000DE0FAE0E0680028C3D0206900F0E9FC8B
:100D40001CE000BFFFF75CFC801B022894D82868D9
:100D5000C0F380200028F5D0EFE720F480702860F1
:100D6000FFF74EFC064604E0FFF74AFC801B022812
:100D7000B0D82868C0F380200028F5D1206801078A
:100D800001D4C1064DD56169E9B3C0064AD500F06A
:100D9000D0FC90B9D5F8940040F00100C5F894005B
:100DA000FFF72EFC064604E0FFF72AFC801B022812
:100DB00090D800F0BEFC0028F6D0D5F8940040F0A2
:100DC0000400C5F89400FFF71BFC064605E000BFD1
:100DD000FFF716FC801B03288CD8D5F89400C0F3CD
:100DE000C0000028F4D0A069D5F8941021F47061F7
:100DF00041EA0020C5F89400D5F8940020F00100E5
:100E0000C5F8940000E033E0FFF7FAFB064604E083
:100E1000FFF7F6FB801B022898D800F08AFC002818
:100E2000F6D14EE0D5F8940040F00100C5F89400EA
:100E3000FFF7E6FB064604E0FFF7E2FB801B022813
:100E400073D800F076FC0028F6D0D5F8940020F096
:100E50000400C5F8940004E0FFF7D2FB801B0328D0
:100E600063D8D5F89400C0F3C0000028F4D128E07E
:100E7000D5F8940020F00400C5F89400FFF7C0FBFB
:100E8000064604E0FFF7BCFB801B03284DD8D5F8CD
:100E90009400C0F3C0000028F4D1D5F8940020F0ED
:100EA0000100C5F89400FFF7ABFB064605E000BF64
:100EB000FFF7A6FB801B022837D800F03AFC002879
:100EC000F6D12078400752D5594F3868C0050DD467
:100ED000FFF714FCFFF794FB064604E0FFF790FBD6
:100EE000801B022821D83868C005F7D5A0680128E2
:100EF00016D00528D5F8900018D020F00100C5F8CC
:100F00009000D5F8900020F0040000BFC5F89000D4
:100F1000A06841F28836D8B1FFF772FB074610E0AF
:100F2000D5F8900040F00100F0E77CE040F00400CC
:100F3000C5F89000F4E700BFFFF762FBC01BB042AA
:100F400071D8D5F89000C0F340000028F4D00EE02E
:100F5000FFF756FB074604E0FFF752FBC01BB04209
:100F600061D8D5F89000C0F340000028F4D1A06A01
:100F7000C0B300F0C8FB0146E868A26A022A09D0A3
:100F80000C2979D0286820F080702860FFF738FBA2
:100F9000044685E0E36A00F003029A4218D1236B0D
:100FA00000F070029A4213D1626BC0F306239A429A
:100FB0000ED1A36B00F478129A4209D1E36B00F0D2
:100FC00060629A4204D1226C00F06040904244D0AA
:100FD0000C296ED0286820F080702860FFF710FB85
:100FE000064606E052E000BFFFF70AFB801B02281E
:100FF00053D828688001F7D4D4E90B010843D4E919
:101000000D2141EA02210843E16B0843216C0843AA
:10101000E968084A11400843E860286840F0807099
:101020002860E86808E038E0140000200C00002088
:10103000000400588C80C11140F08050E860FFF738
:10104000DFFA044605E000BFFFF7DAFA001B0228CA
:1010500023D828688001F7D529E02868800126D4A4
:10106000286840F080702860E86840F08050E860B0
:10107000FFF7C6FA044606E01BE000BFFFF7C0FA20
:10108000001B022809D828688001F7D50FE000BFAF
:10109000FFF7B6FA001B022802D90320BDE8F08151
:1010A00028688001F4D4E86803490840E86000201B
:1010B000F4E70120F2E70000FCFFFFEF10B5401E4F
:1010C000B0F1807F01D3012010BD4FF0E0246061BA
:1010D0000F21601701F0CFF80020A06107202061E8
:1010E000002010BDF0B590F83C20012A1BD001244F
:1010F00080F83C40022280F83D2003685A689D68D1
:10110000104EB34203D122F470074A683A4322F0EA
:1011100070070A683A435A600268B24205D0B2F1D9
:10112000804F02D006E00220F0BD896825F08003E0
:101130001943916080F83D40002180F83C1008463A
:10114000F0BD0000002C014010B5040003D094F85D
:101150003D0010B107E0012010BD002084F83C00E4
:10116000204600F022F8022084F83D00211D20686E
:1011700000F0CEFC012084F8480084F83E0084F89A
:101180003F0084F8400084F8410084F8420084F86D
:10119000430084F8440084F8450084F8460084F84D
:1011A000470084F83D00002010BD08B50068B0F18C
:1011B000804F09D14FF0B040816D41F00101816550
:1011C000806D00F00100009008BD000070B504467D
:1011D00090F83C000025012817D0012684F83C60D7
:1011E000022084F83D00226890682F4B184020F4BC
:1011F0007F4090600868502838D00DDC20284FD000
:1012000005DC90B3102811D14AE0022070BD3028CF
:1012100046D040280AD13BE060282FD070280DD05E
:10122000B0F5805F03D0B0F5005F12D0012584F8DF
:101230003D60002084F83C00284670BDCB68D1E9B1
:101240000121206800F099FC2068816841F0770155
:1012500009E0CB68D1E90121206800F08EFC20680C
:10126000816841F480418160E1E719E0CA6849681A
:10127000206800F091FD5021206806E0CA684968A6
:10128000206800F09AFD6021206800F081FCCEE724
:10129000CA684968206800F07FFD40212068F4E7B3
:1012A000226801461046F0E788FFCEFF10B586B0F1
:1012B000044614216846FFF728F82068B0F1804FF3
:1012C00016D14FF0B040C16C41F00101C164C06C57
:1012D000694600F001000590022000900190002076
:1012E00002900390012004904FF09040FFF784F8A3
:1012F00006B010BD70B5044690F83C0000260D46BF
:1013000001280BD0012084F83C000C2A4AD007DCCD
:1013100082B1042A20D0082A06D131E0022070BD13
:10132000102A53D0142A63D00126002084F83C00F0
:10133000304670BD206800F035FC2068816941F0BE
:10134000080181612068816921F0040181612068C0
:1013500081692A69114311E0206800F04FFC206880
:10136000816941F4006181612068816921F48061B3
:101370008161206881692A6941EA02218161D4E79B
:10138000206800F06BFC2068C16941F00801C16170
:101390002068C16921F00401C1612068C1692A691E
:1013A000114311E0206800F089FC2068C16941F414
:1013B0000061C1612068C16921F48061C161206858
:1013C000C1692A6941EA0221C161AEE7206800F0E3
:1013D0009BFC2068416D41F0080141652068416D2A
:1013E00021F0040141652068416D2A69114311E033
:1013F000206800F0ADFC2068416D41F4006141655A
:101400002068416D21F4806141652068416D2A6941
:1014100041EA0221416588E710B5040003D094F841
:101420003D0010B107E0012010BD002084F83C0011
:10143000204600F022F8022084F83D00211D20689B
:1014400000F066FB012084F8480084F83E0084F830
:101450003F0084F8400084F8410084F8420084F89A
:10146000430084F8440084F8450084F8460084F87A
:10147000470084F83D00002010BD704710B50446B9
:10148000022269B1042912D0082917D00C291CD0D6
:10149000102921D094F84300012824D0012010BD48
:1014A00094F83E000128F9D184F83E201DE094F81C
:1014B0003F000128F2D184F83F2016E094F8400064
:1014C0000128EBD184F840200FE094F84100012876
:1014D000E4D184F8412008E094F842000128DDD1ED
:1014E00084F8422001E084F843200122206800F0C3
:1014F00037FB0E492068884203D1426C42F4004217
:1015000042642068884202D0B0F1804F07D18168E0
:10151000074A1140062906D0B1F5803F03D0016883
:1015200041F001010160002010BD0000002C0140CD
:101530000700010090F88410012918D0012180F8DB
:1015400084102421C0F8881001680A680B6823F011
:1015500001030B6022F0005100224266036819600B
:101560002021C0F8881080F884201046704702209F
:10157000704770B5044690F8840001281DD0012002
:1015800084F884002420C4F8880020680568026874
:1015900022F0010202602068826822F060620A4341
:1015A0008260204600F01CFC206805602020C4F802
:1015B0008800002084F8840070BD022070BD70B5E2
:1015C000044690F8840001281DD0012084F884008E
:1015D0002420C4F8880020680568026822F001020F
:1015E00002602068826822F060420A4382602046DE
:1015F00000F0F6FB206805602020C4F88800002079
:1016000084F8840070BD022070BD10B5040003D0C2
:10161000D4F8880010B107E0012010BD002084F844
:101620008400204600F026F82420C4F888002068B2
:10163000016821F001010160204600F0D7FC01287B
:10164000EBD0A06A10B1204600F0ECFB20684168A6
:1016500021F4904141602068816821F02A01816075
:101660002068016841F0010101602046BDE810409A
:1016700000F03CBC30B593B0044614210CA8FEF732
:1016800044FE30216846FEF740FE18492068884233
:1016900029D1012400256846CDE90045FFF73DF832
:1016A00008B1FEF794FE4FF0B040016E41F4804166
:1016B0000166016E01F480411191C16C41F001019C
:1016C000C164C06C0DA900F0010011904FF4C0601E
:1016D0000C90022081E83100072010900CA94FF0F7
:1016E0009040FEF789FE13B030BD00000038014085
:1016F000FEE708B54FF0B041CA6C0243CA64C96C3A
:101700000140009108BD4FF0B040806800F00C002F
:1017100070474FF0B0414A6822F0FE4242EA006052
:10172000486070474FF0B040D0F89000C0F34000E0
:1017300070474FF0B040D0F89400C0F340007047BD
:101740004FF0B040006800F0F000B02800D9B020A1
:1017500070474FF0B0400068C0F3400070474FF052
:10176000B0414A6822F47F4242EA00204860704754
:101770004FF0B0410A6822F0F00202430A6070475D
:101780004FF0B040C06800F0030070474FF0B04128
:1017900051F8882F030C1B049A4342EA004008606A
:1017A00070474FF0B04151F8882F22F04042024379
:1017B0000A607047F0B585B014216846FEF7A5FDB4
:1017C0000420FFF796FF0120FFF793FF0220FFF7A9
:1017D00090FF1020FFF78DFF144E0022232130468A
:1017E000FEF708FF00240125CDE900544FF0904793
:1017F000694638460294FEF7FFFD40208DE831002F
:1018000069463846FEF7F8FD23200090CDE90154E3
:10181000694630460394FEF7EFFD10208DE8310055
:1018200069460348FEF7E8FD05B0F0BD0004004836
:101830000010004810B58EB0002407940894099455
:101840000A940B940C941C2168460D94FEF75DFDE0
:101850001E484FF08041016040F27F21C0E9011431
:1018600040F2CF71C0E9031480218161FFF76CFC65
:1018700008B1FEF7ACFD4FF48050079007A913485C
:10188000FFF7A4FC08B1FEF7A2FD1048FFF7C4FD66
:1018900008B1FEF79CFD0B940BA90C480D94FFF7C3
:1018A00021FC08B1FEF793FD6020CDE9000402940D
:1018B0000422694605480494FFF71CFD08B1FEF7B1
:1018C00086FD0248FFF7F2FC0EB010BD18000020A4
:1018D000184810B5164901604FF4E131416000210C
:1018E00081600C22C160C0E904128161C1610162A2
:1018F00041628162FFF789FE08B1FEF768FD0021B1
:101900000C48FFF75CFE08B1FEF761FD00210948B5
:10191000FFF72FFE08B1FEF75AFD0648FFF70AFE53
:10192000002803D0BDE81040FEF751BD10BD0000F7
:101930000038014064000020FEE7FEE7704700B574
:101940008DB030216846FEF7E0FC4FF40050009067
:1019500000200A9010200B906846FEF7DEFE00285B
:1019600001D072B6FEE70DB000BD000070B524498D
:1019700088B0B02801D9C86A03E03C2202EA90008E
:1019800008584FF0B041D1F808111E4A01F00F017C
:1019900004AE52F82110B0FBF1F01B49B0FBF1F19D
:1019A0001A483CC88DE83C001DC886E81D0000258B
:1019B00028466A4652F820308B4203D304A951F8D6
:1019C000205002E0401C0428F4D3114C206820F081
:1019D000070028432060FEF713FE064608E000BF1C
:1019E000FEF70EFE801B022802D9032008B070BD4E
:1019F000206800F00700A842F2D10020F6E70000BE
:101A0000702300083023000840420F00E82200083D
:101A1000004000587047FEF7FFBD10B598B0442154
:101A20006846FEF772FC1C2111A8FEF76EFCFEF75B
:101A300065FE4FF0B04050F8901F21F0180141F0C2
:101A400010010160272000904FF4803001900120A8
:101A50000102CDE902014021049100246021CDE979
:101A600008410221CDE90A1007902020CDE90C4061
:101A700000030E900003109000110F906846FFF7CE
:101A800097F808B172B6FEE76F2011900320CDE9F8
:101A9000120480201494CDE91540032111A8179455
:101AA000FEF708FF08B172B6FEE7FEF72FFE18B08A
:101AB00010BD00001348016841F4700101604FF04F
:101AC000B040016841F0010101604FF4E021816004
:101AD00001680D4A11400160D0F8941021F0050111
:101AE000C0F89410D0F8981021F00101C0F89810B7
:101AF0000649C160016821F48021016000218161F3
:101B00007047000088ED00E0FBFEF6FA00100422AA
:101B100030B50268114B4FF08045984201D0A84281
:101B200003D122F070044A682243984201D0A842AF
:101B300003D122F44074CA6822434C6922F0800227
:101B4000224302608A68C2620A688262984201D1B6
:101B5000096901630121416130BD0000002C014091
:101B600010B501F01F030121046A99408C430462FF
:101B7000016A9A401143016210BD10B5846842EABF
:101B8000032224F47F440A432243826010BD0000F4
:101B90008268034B1A400A4342F007018160704794
:101BA0008FFFCFFF30B5026A22F001020262056AA0
:101BB000436882690F4C25F0020522400C6822F030
:101BC000030214438A682A430B4DA8420BD122F02A
:101BD0000805CA6823F440732A434D6922F00402C1
:101BE0001D438B692B4343608461496841630262F2
:101BF00030BD00008FFFFEFF002C014030B5026AAF
:101C000022F010020262056A42688369114C234087
:101C10000C6823F4407343EA042425F020038D6804
:101C200043EA05130C4DA8420ED1CD6823F0800382
:101C300043EA05134D6922F4406242EA85028D6948
:101C400023F0400342EA850242608461496881636F
:101C5000036230BDFF8FFFFE002C014030B5026AE9
:101C600022F480720262046A4268C369114D2B40FB
:101C70000D6823F003031D4324F400738C6843EACA
:101C800004230D4CA0420ED1CC6823F4006343EA38
:101C900004234C6922F4405242EA04128C6923F472
:101CA000806342EA04124260C5614968C16303620D
:101CB00030BD00008FFFFEFF002C014030B5026AEE
:101CC00022F480520262046A4268C3690C4D24F413
:101CD00000542B400D6823F4407343EA05238D68BC
:101CE00044EA0534074DA84204D14D6922F48042EC
:101CF00042EA85124260C36149680164046230BDF2
:101D0000FF8FFFFE002C014030B5026A22F48032C2
:101D10000262046A4268436D0B4D2B400D681D43FF
:101D200024F400330C8943EA0443084CA04204D154
:101D30004C6922F4803242EA0422426045654968D7
:101D40008165036230BD00008FFFFEFF002C014063
:101D500030B5026A22F480120262046A4268436D5E
:101D60000B4D24F400142B400D6843EA05230D8924
:101D700044EA0554074DA84204D14D6922F480225B
:101D800042EA8522426043654968C165046230BD0C
:101D9000FF8FFFFE002C014010B5036A046A24F097
:101DA00001040462846924F0F00444EA021423F07C
:101DB0000A020A438461026210BD10B5036A23F06F
:101DC000100303628369046A23F4704343EA023216
:101DD00024F0A00343EA01118261016210BD0000FA
:101DE00030B5416EB9B1026891689268C1F3426141
:101DF0000B4B520F9C5CE50003F10804A25CB5FBA1
:101E0000F2F2A0F86A205A5C615CD200B2FBF1F1F8
:101E1000A0F8681030BD0121A0F86A10F8E70000B2
:101E20002023000890F82810C90706D001684A68E6
:101E3000C36A22F400321A434A6090F828108907D6
:101E400006D501684A68036B22F480321A434A605F
:101E500090F82810490706D501684A68436B22F4B8
:101E600080221A434A6090F82810090706D50168B5
:101E70004A68836B22F400421A434A6090F82810A3
:101E8000C90606D501688A68C36B22F480521A43DA
:101E90008A6090F82810890606D501688A68036C64
:101EA00022F400521A438A6090F82810490611D58E
:101EB00001684A68436C22F480121A434A60416CFC
:101EC000B1F5801F06D101684A68836C22F4C00214
:101ED0001A434A6090F82810090606D501684A6836
:101EE000C06C22F4002202434A6070472DE9F84397
:101EF00000260446C0F89060FEF782FB804620680A
:101F000000684FF0200500076FF07E4713D5434669
:101F1000002229042046009700F066F958B1216894
:101F200051E8000F20F0800041E80002002AF6D1BD
:101F3000C4F8885021E020680068400722D5434655
:101F400000224FF480012046009700F04DF9C8B1FF
:101F5000216851E8000F20F4907041E80002002A47
:101F6000F6D12068083050E8001F21F0010140E858
:101F70000012002AF5D1C4F88C5084F88460032044
:101F8000BDE8F883C4F88850C4F88C5044F86C6FEE
:101F9000666026760020F3E710B5026852E8001F5D
:101FA00021F4907142E80013002BF6D10E4B026829
:101FB000083252E8001F194042E80014002CF6D104
:101FC000C16E012908D1016851E8002F22F01002EA
:101FD00041E80023002BF6D12021C0F88C1000210D
:101FE000C166416710BD0000FEFFFFEF2DE9F04123
:101FF0000446016880682269E66910436269002529
:1020000032431043714B0A68714E324002430A60FA
:1020100020684168E26821F4405111434160216821
:10202000A069994201D0226A10438A68694E324001
:1020300002438A602068C16A626A21F00F0111437D
:10204000C1626549D4F800C04FF0B0408C450DD155
:10205000D0F8880010F0030006D001281DD0022817
:1020600019D003281BD112E0012119E09C4516D19B
:10207000D0F888004FF4406110F4406009D0B0F50A
:10208000806F0AD0B0F5006F05D0884207D10821D3
:1020900006E0002104E0022102E0042100E010211A
:1020A0004E4A4F4F00264FF400409C4533D131B18A
:1020B000022907D0042907D0082979D107E0FEF7C3
:1020C00009FD03E0104602E0FEF728FD10B3616A47
:1020D00037F811206768B0FBF2F107EB47038B423A
:1020E00066D8B1EB073F63D800231946FEF796F890
:1020F000090241EA106102027808101871413A465B
:102100000023FEF78BF8374AA0F5407191424FD873
:102110002168C8604DE0E3694FF6EF78834228D12B
:10212000012906D0022907D0042907D008293FD168
:1021300007E0FEF7E1FC03E0104602E0FEF7EEFCEC
:10214000B8B3616A37F81110B0FBF1F04100606874
:1021500001EB5001B1FBF0F0A0F11001414527D88F
:102160004FF6F0710140C0F3420001432068C160A6
:102170001FE0012906D0022907D0042907D0082929
:1021800016D107E0FEF7B8FC03E0104602E0FEF7C8
:10219000C5FC70B1616A37F81110B0FBF1F16068ED
:1021A00001EB5001B1FBF0F0A0F1100141450AD95B
:1021B00001250120A4F86A0024F8680F2846E6608B
:1021C0002661BDE8F08180B2A2E7000000800040F7
:1021D000F369FFCFFFF4FF11003801400024F40041
:1021E00008230008FFFC0F002DE9F0479946174629
:1021F0000E4604464FF00008089D2FE0681C2DD0C5
:10220000FEF7FEF9A0EB0900A84214D89DB12068A2
:102210000168490722D5C169C94309070DD40825BA
:1022200005622046FFF7B8FEC4F8905084F8848019
:102230000120BDE8F0870320FBE7C069C04300052B
:102240000CD421684FF4006008622046FFF7A4FE1A
:102250002020C4F8900084F88480ECE72068C069EE
:1022600036EA000004D00020B842C7D00020E0E7E2
:102270000120F9E7FEE70907090E002804DB00F159
:10228000E02080F80014704700F00F0000F1E0201B
:1022900080F8141D70470000FEF7C6F9FFF7BDFB7C
:1022A000FFF74DFBFFF786FAFFF7C4FAFFF710FBC5
:1022B00004210948FFF7E2F8B4252C0742F2283739
:1022C0003C2642F23418A5633846FEF783F8A6632D
:1022D0004046FEF77FF8F6E7180000204FF0407008
:1022E000E1EE100A70470000120000002400000018
:1022F0003600000040000000000000000100000067
:1023000002000000030000000100020004000600BB
:1023100008000A000C0010002000400080000001AE
:102320000101010307010000080402040801010182
:102330000100000003000000050000000100000093
:1023400001000000060000000A000000200000005C
:10235000020000000400000008000000100000005F
:1023600040000000800000000001000000020000AA
:10237000A0860100400D0300801A060000350C0005
:1023800040420F0080841E0000093D0000127A00C8
:102390000024F40000366E010048E801006CDC0205
:1023A000000000000000000000000000000000002D
:1023B000000000000000000000000000000000001D
:1023C0000100000002000000030000000400000003
:1023D000F023000808000020100000007801000829
:1023E00000240008180000204007000094010008A5
:1023F00001000000100000000000000000093D0086
:040000050800013DB1
:00000001FF
